:02000000052FCA
:10000800FF00030E8301E6000A08E5008A01700874
:10001800A4007B08A3007C08A2007D08A1008B1C1B
:1000280050286308E7006408E80080306806F0009C
:1000380080307002031D222800306702031C4F28FD
:1000480067088500143087008230FC00DD30FD0031
:10005800FD0B2C28FC0B2C28000000000C3087001E
:100068008230FC00DD30FD00FD0B3828FC0B382801
:1000780000000000243087008230FC00DD30FD00E5
:10008800FD0B4428FC0B4428000000000130E70267
:10009800031CE80319288B100B1C7D28061A572807
:1000A800861A57286728213087000630FB0013304E
:1000B800FC00AD30FD00FD0B5F28FC0B5F28FB0B3F
:1000C8005F2800000000061B6C28861B6C287C2813
:1000D8000C3087000630FB001330FC00AD30FD000B
:1000E800FD0B7428FC0B7428FB0B7428000000001F
:1000F8000B100B1D80280B112408F0002308FB00AF
:100108002208FC002108FD0065088A00660E8300AD
:06011800FF0E7F0E09003E
:0E011E00213083120313FD00FD0B932808000F
:10012C000F3083120313FC004730FD00FD0B9C289D
:0A013C00FC0B9C28000000000800E6
:06014600000000000800AB
:10014C0083160313A91BAD2883128811AF288312C1
:10015C0088158316291BB52883120811B72883121A
:10016C0008158316A91ABD2883128810BF2883127C
:10017C0088148316291AC52883120810C7288312DD
:10018C0008146918CB280816CC2808128816A32046
:10019C0088128316A919D52883128811D72883129F
:1001AC00881583162919DD2883120811DF2883127C
:1001BC0008158316A918E52883128810E7288312DE
:1001CC00881483162918ED2883120810EF2883123F
:1001DC0008146918F3280816F42808128816A320A6
:0E01EC008812691CFB289620FC288F20080032
:1001FA007B15FB1F07290130F300F201F101F00121
:08020A00FA0DF20CFF300800B0
:08021200FA1FF213003008008E
:0E021A00F201F101F001F801F30100300800DB
:10022800FB14FB1F1E29FF30F300F200F100F00061
:08023800FA0DF20CFF30080082
:1002400083120313FA017308031D7A147708031D40
:10025000FA147A0803196C29033A031937297A1812
:100260003429F61F6A296829F21F68296A29720849
:100270008039FA00F21376088039F6137A060319EA
:1002800045297A08031968296A297708730203192E
:100290004C29031C6029642976087202031953292A
:1002A000031C602964297508710203195A29031C6B
:1002B000602964297408700203196C2903186429E1
:1002C000FA0803196A296829FA08031968296A29AA
:1002D00003140800031008000314031508000800A5
:1002E00083120313FB017308031D77080319C72941
:1002F00072087606FA007708F3077E30031C84291B
:10030000F3020318CA298729F302031CCD297208B6
:10031000F8007108FC007008FD00F817F6170310CC
:10032000F201F101F0011830A0007D1CA129740830
:10033000F00775080318750FF10776080318760F94
:10034000F207F20CF10CF00CF80CFC0CFD0C031095
:10035000A00B9529F21BB129F80DF00DF10DF20D4E
:10036000F3037B1B701CC329F81FC329F00A031970
:10037000F10A0319F20A031DC329F20CF10CF00C67
:10038000F30A0319CA29FA1FF2130030CF290130EA
:100390000D21CF2902301421CF290430FD20000087
:0203A000080053
:1003A2000E3083120313FD00FD0BD5290000080057
:1003B200A0017208031DEE297108F2007008F10015
:1003C200F001A0157208031DEE297108F200F10177
:1003D200A011201672080319FC292008F302031D3C
:1003E200031C002A0310F21B042AF00DF10DF20D7A
:1003F200F30BF429002A0130FC000D21072A0230F8
:0E040200FC00FD20072A0430FC000921080040
:1004100083120313691083162708A900A620691404
:020420000800D2
:100422007B14FB1F1C2AF201FA1FFF30F200F100BD
:0A043200F000FA0DF20CFF30080094
:10043C007C18542AFC18252A7C19732A1E2AA00120
:10044C007208031D452A7108F2007008F100780843
:10045C00F000F801A0157208031D452A7108F2007E
:10046C007008F100F001A01120167208031D452A36
:10047C007108F200F101A01572080319672A20080F
:10048C00F302031D031C6B2A0310F21B542AF80DF4
:10049C00F00DF10DF20DF30B4B2A6B2A7B1B701C2C
:1004AC006F2AF81F6F2AF00A0319F10A0319F20ACE
:1004BC00031D6F2AF20CF10CF00CF30A0319732ACA
:1004CC006F2A0130FC000D21762A0230FC00FD2041
:1004DC00762A0430FC000921762A0830FC0014210D
:0404EC000000080004
:0E04F0008312031360088A005F088200080070
:1004FE00831603132708F2007208F100F20A280887
:10050E00F000A80A700884000008F000710884004A
:10051E00700880007108840000080319972A832A46
:06052E002708F0000800A0
:1005340083120313FD01F8017008031900347406D3
:10054400FA00FA1BFD09FB01F41FAA2AF409F40AB4
:10055400F01FAE2AF009F00A70087404FA00FA1BBE
:10056400D22A7408F802F00D700DF80D7408F8071B
:10057400F00D0630FC00700DF80D74087018F802C8
:10058400701CF807F00DFC0BBD2A701CF8077B18D3
:10059400E02AFD1F0034F009F00AF809F80A0034D3
:1005A400F41FDD2AF01BDA2A7008F800F001CB2AC8
:1005B400F001F00A0034F009FB0AB32AF80A7408BF
:1005C4007802031DCB2AF801F00AF01FCB2AFF346E
:0205D40008001D
:1005D600831203139F01C0309F042D09F000700899
:1005E60083169F051F179F1783126A08F000F00DE8
:1005F6007010F00D7010F00D701070089F041F142D
:10060600D1211F151F1D092B0000052B1F101E08C9
:10061600F100F00183161E08F0040030F104080012
:1006260083160313A501A60183126A088316A10087
:1006360083126B088316A20083126C088316A3002C
:1006460083126D088316A4002408FF3A031D352B78
:100656002308FF3A031D352B2208FF3A031D352BCD
:100666002108FF3A031D412B83126E088316A7004B
:100676004D30A8007F220330F0003A2D013083125E
:10068600EF008316A31F532B80302306F00070085B
:10069600A3008312EF0A6E0884002D308000EE0A54
:1006A6000030F00083162406031D632B7008230612
:1006B600031D632B70082206031D632B2108003AD5
:1006C600031D6E2B83126E088316A7002530A80023
:1006D6007F22F0013A2D2408FF3A031D7C2B2308C4
:1006E600003A031D7C2B2208003A031D7C2B2108AF
:1006F600003A031D892B83126E088316A700273044
:10070600A8007F2283126F08F0003A2D0030F40013
:100716000030F5000030F6007F30F7008316210820
:10072600F0002208F1002308F2002408F30020213B
:10073600013003180030F00070080319BF2B831630
:100746002108F0002208F1002308F2002408F30033
:100756000030F4000030F5002030F6008230F7005B
:10076600702170088316A1007108A2007208A30008
:100776007308A400A603892B83160030F40000300A
:10078600F5002030F6008230F7002108F00022083C
:10079600F1002308F2002408F30020210130031C95
:1007A6000030F00070080319F52B83162108F000BD
:1007B6002208F1002308F2002408F300CD30F400EB
:1007C600CC30F5004C30F6007B30F7007021700815
:1007D6008316A1007108A2007208A3007308A40082
:1007E600A60ABF2B8316FF302105F800FF3022052D
:1007F600F9007F302305FA0000302405FB00780855
:10080600F4007908F5007A08F6007B08F700F40D85
:10081600F50DF60DF70D741000302105F0000030CF
:100826002205F10000302305F200FF302405F30015
:100836007008A1007108A2007208A3007308A40042
:1008460074082104F00075082204F10076082304D8
:10085600F20077082404F3007008A1007108A200D2
:100866007208A3007308A4007F302402F000700809
:10087600A0000130A4007008F4002108F00022084E
:10088600F1002308F2002408F30074080319522C1F
:10089600F00DF10DF20DF30D7010FF3E492C7008AE
:1008A600A1007108A2007208A3007308A40024081E
:1008B600303EF00083126E08840070088000EE0A55
:1008C600803083162606F0008030013A7002031C41
:1008D600752C8030063AF000803026067002031C24
:1008E600752C7E2C83126E0884002E308000EE0A52
:1008F60001308316A5000630A0002008003A03192F
:10090600E02CA4012108F0002208F1002308F200DF
:100916002408F300F00DF10DF20DF30D7010F00D3B
:10092600F10DF20DF30D70102108F00722080318DF
:10093600220FF10723080318230FF20724080318D0
:10094600240FF3077008A1007108A2007208A30023
:100956007308A4002108F0002208F1002308F20021
:100966002408F300F00DF10DF20DF30D7010700870
:10097600A1007108A2007208A3007308A40024084D
:10098600303EF00083126E08840070088000EE0A84
:1009960083162508003A031DDE2CA6032608003A16
:1009A600031DDE2C83126E0884002E308000EE0AB2
:1009B60001308316A500A003802CFF3083126E073A
:1009C60084000008303A031DEA2CEE03E02CFF30C9
:1009D6006E07840000082E3A031DF22CEE038316E0
:1009E6002608003A0319352D83126E0884006530F7
:1009F6008000EE0A803083162606F0008030003A2A
:100A060070020318102D83126E0884002D308000AA
:100A1600EE0A83162608003CA6002608A0008030B1
:100A2600093AF0008030260670020318262D0A3097
:100A3600F4002008F0009A223030F0076E08840097
:100A460070088000EE0A0A30F40083162008F000D1
:100A56009A227808F0003030F0076E08840070089B
:100A66008000EE0A83126E0884008001F0010800FF
:100A7600831203137008F8007108F000F101F20107
:100A8600F301FB01FC019630F300FA01F01F512D32
:100A9600F809F009F80A0319F00AFA177008F100C4
:0C0AA6007808F000F801F201D9210800E6
:100AB20083120313FB0173080319962D7208FA00BF
:100AC200F2178E30F302F31F992DF309F30A08305F
:100AD2007302031C7C2DF300F10D7208F100F20188
:100AE20008307302031C7C2DF300F10DF101730831
:100AF200031D0310842D73080319842D0310F20CB7
:100B0200F10CF30B7F2D7B1B711C8E2D031C8E2D84
:100B1200F10A0319F20AF21BA52DFA1FA82DF209F8
:100B2200F109F10A0319F20AA82DF201F101A82D27
:100B32007B14FB1FAB2DF201FA1FAB2DFF30F2002D
:100B4200F100FA0DF20CAB2D0130FC00AD2D00309E
:100B5200FC00AD2DFF30FC00FC080319B12D112261
:0A0B62007108F0007208F1000800AD
:100B6C008312031372087606A000F801F9017308CA
:100B7C007702031CD92D7708FD007308F7007D0858
:100B8C00F3007608FD007208F6007D08F200750887
:100B9C00FD007108F5007D08F1007408FD00700877
:100BAC00F4007D08F00077080319522E7208FA0041
:100BBC00F217F61777087302F70003190C2E08309A
:100BCC007702031C022EF7007408F9007508F40074
:100BDC007608F500F60108307702031C022EF700A8
:100BEC007408F9007508F400F50108307702031C4D
:100BFC00022E7A08F200522E770803190C2E0310DD
:100C0C00F60CF50CF40CF90CF70B052EA01F192E95
:100C1C00F909F409F509F609F90A0319F40A031993
:100C2C00F50A0319F60A7908F80774080318740F03
:100C3C00F00775080318750FF10776080318760F7F
:100C4C00F207A01B322E031C422EF20CF10CF00CFE
:100C5C00F80CF30F422E4E2E0318462EF809F0090D
:100C6C00F109F209F80A0319F00A0319F10A031938
:100C7C00F20A8030FA064A2E0130FC001E22542E55
:100C8C000230FC001E22542E0430FC00D921542EBC
:100C9C000830FC001421542E0030FC000000080029
:100CAC008316031388120812081088100811881173
:100CBC0083128812081288110811881008109620C7
:100CCC0096209620881408148816A3208812962043
:100CDC008816A320881296208816A32088129620A6
:100CEC0008108816A320881296208816A320881234
:100CFC00881088158816A32088129620881108144D
:100D0C008816A320881208108816A3208812962013
:100D1C008816A320881208148816A32088129620FF
:100D2C0008108816A3208812881508158814081432
:0C0D3C008816A320881296206914080075
:100D4800B62E803083120313EA00C92EC030EA00A1
:100D5800C92E9430EA00C92ED430EA00C92E80305A
:100D6800EA00C92E831203136A08013A0319A52E53
:100D78006A08023A0319AA2E6A08033A0319AD2E23
:100D88006A08043A0319B02EB32E6B03F0006A0800
:100D9800F0077008EA0070088316A900A6206910F9
:100DA800ED016D086C07840000080319E42E6D0836
:100DB8006C07840000088316A7000822ED0AD52EC8
:040DC80069140800A2
:100DCC0083120313EB016B086A07840000080319F4
:100DDC00F82E6B086A07840000088316A700082207
:060DEC00EB0AE92E0800ED
:100DF20078228A110A128000840ADF0A0319E00AA3
:080E0200F003031DF92E0800A6
:100E0A00E827831603138701880105108510051149
:100E1A00851180309F000611861106168616061760
:100E2A008617861006148B170B1601178B158B164F
:100E3A0047308100831281018610870156260130CE
:100E4A008316A900A62001308316A900A6200C301B
:100E5A008316A900A6200130EA000130EB003E30DB
:100E6A00EC00A4260730EA00EB2270088312E100A6
:100E7A007108E2003B254B30F4003C30F50020308D
:100E8A00F6007730F70070210030F4000030F500EA
:100E9A002030F6008130F700B62559257008E300A6
:100EAA007108E4000230EA000130EB005130EC0036
:100EBA00A4266308F0006408F1003B257008EA00E4
:100ECA007108EB007208EC007308ED002E30EE009A
:100EDA0013232E3083120313EA00E6262B30EA008E
:100EEA00E626213087008230FC00DD30FD00FD0B54
:100EFA007C2FFC0B7C2F0000000012308700823010
:100F0A00FC00DD30FD00FD0B882FFC0B882F000054
:100F1A0000000C3087008230FC00DD30FD00FD0B44
:100F2A00942FFC0B942F00000000123087008230AF
:100F3A00FC00DD30FD00FD0BA02FFC0BA02F0000F4
:060F4A000000282FA72F74
:100FD000253084003A3083120313F000AD30DF0077
:080FE0000730E000F9260800CB
:040F5A0030340034FB
:080F5E0049344E3446340034DE
:040F660053340034CC
:020F6A000F3442
:100F6C0000340034003400340034003400340034D5
:100F7C0000340034003400340034003400340034C5
:100F8C0041347034703475347934653472342034AF
:0E0F9C0042346F34753474346F346E34003464
:080FAA004E3461344E34003472
:100FB200543465346D3470347334203441346C34B9
:0C0FC2006C346F34753465342034003416
:02400E007A3BFB
:00000001FF
